:100000000C9446000C9465000C9465000C946500FB
:100010000C9465000C9465000C9465000C946500CC
:100020000C9465000C9465000C9465000C946500BC
:100030000C9465000C9465000C9465000C946500AC
:100040000C9465000C9465000C9465000C9465009C
:100050000C9465000C9465000C9465000C9465008C
:100060000C9465000C9465000C9465000C9465007C
:100070000C9465000C9465000C9465000C9465006C
:100080000C9465000C9465000C94650011241FBE4F
:10009000CFEFD0E4DEBFCDBF11E0A0E0B1E0EAEBEE
:1000A000F2E000E00BBF02C007900D92A033B10751
:1000B000D9F721E0A0E3B1E001C01D92A433B2075B
:1000C000E1F70E943E010C945B010C940000CF9379
:1000D000DF9300D01F92CDB7DEB789837B836A831D
:1000E00089818A3031F48A819B81BC018DE00E9434
:1000F000670080EC90E0FC018081882F90E08072A6
:100100009927892BB1F386EC90E02981FC012083AB
:1001100080E090E00F900F900F90DF91CF910895C5
:10012000CF93DF931F92CDB7DEB780E290E0FC0162
:100130008081882F90E08170992721E0892B09F038
:1001400020E0298380913201909133018130910523
:1001500081F08130910530F082309105B9F003973C
:1001600031F15AC081E090E09093330180933201E5
:1001700053C08981882319F082E090E002C081E0B9
:1001800090E0909333018093320146C089818823A7
:1001900039F082E090E090933301809332013CC0CB
:1001A00083E090E0909333018093320135C08981E0
:1001B000882381F080913001803160F482E090E00A
:1001C0009093330180933201809130018F5F80934F
:1001D000300121C08981882369F08091300180310C
:1001E00048F082E090E090933301809332011092C6
:1001F000300111C08981882339F483E090E0909325
:1002000033018093320107C083E090E09093330183
:100210008093320100C0000080913201909133013F
:100220008230910589F08330910511F1019709F031
:1002300020C01092310185E290E020913101FC0153
:1002400020831092300115C080913001882F90E0FA
:10025000880F991F825F9E4FFC018081918180935E
:10026000310185E290E020913101FC01208301C041
:10027000000000000F90DF91CF910895CF93DF939E
:10028000CDB7DEB781E290E0FC01108282E290E01F
:100290002FEFFC01208384E290E02FEFFC0120830C
:1002A00088E290E0FC01108210923301109232013A
:0A02B0000E949000FDCFF894FFCFEC
:1002BA0000000002000000006700000000001500B6
:1002CA002A0015002A00070038000600180004005A
:1002DA0008000C001200210012000C003F00000070
:00000001FF
