:100000000C9446000C9465000C9465000C946500FB
:100010000C9465000C9465000C9465000C946500CC
:100020000C9465000C9465000C9465000C946500BC
:100030000C9465000C94DE000C9465000C94650033
:100040000C9465000C9465000C9465000C9465009C
:100050000C9465000C9465000C9465000C9465008C
:100060000C9465000C9465000C9465000C9465007C
:100070000C9465000C9465000C9465000C9465006C
:100080000C9465000C9465000C94650011241FBE4F
:10009000CFEFD0E4DEBFCDBF11E0A0E0B1E0E8E8F3
:1000A000F8E000E00BBF02C007900D92A431B10749
:1000B000D9F721E0A4E1B1E001C01D92A832B20756
:1000C000E1F70E9487030C9442040C940000CF9344
:1000D000DF9300D01F92CDB7DEB789837B836A831D
:1000E00089818A3031F48A819B81BC018DE00E9434
:1000F000670080EC90E0FC018081882F90E08072A6
:100100009927892BB1F386EC90E02981FC012083AB
:1001100080E090E00F900F900F90DF91CF910895C5
:10012000CF93DF93CDB7DEB781E080931401000059
:10013000DF91CF910895CF93DF93CDB7DEB781E8FC
:1001400090E02BE0FC01208388E890E02DE730E090
:10015000FC01318320838FE690E022E0FC012083C4
:1001600084E890E0FC011182108280910E01909150
:100170000F01A0911001B09111018093150190938E
:100180001601A0931701B09318018FE590E02FE5B9
:1001900030E0F90120812068FC0120830000DF911C
:1001A000CF910895CF93DF93CDB7DEB781E890E08C
:1001B000FC0110820000DF91CF9108951F920F92F1
:1001C00000905F000F92112400905B000F922F931C
:1001D0003F934F935F936F937F938F939F93AF93CF
:1001E000BF93EF93FF93CF93DF93CDB7DEB78091AB
:1001F000150190911601A0911701B0911801019776
:10020000A109B1098093150190931601A0931701DC
:10021000B09318018091150190911601A0911701DA
:10022000B0911801892B8A2B8B2B91F40E9490009E
:1002300080910E0190910F01A0911001B0911101D8
:100240008093150190931601A0931701B0931801A4
:100250000000DF91CF91FF91EF91BF91AF919F91FE
:100260008F917F916F915F914F913F912F910F905F
:1002700000925B000F9000925F000F901F90189506
:10028000CF93DF9300D000D0CDB7DEB769837A83F8
:100290008B839C8389819A81AB81BC8180930E0181
:1002A00090930F01A0931001B093110180910E0162
:1002B00090910F01A0911001B0911101809315014F
:1002C00090931601A0931701B093180100000F90AE
:1002D0000F900F900F90DF91CF910895CF93DF9300
:1002E000CDB7DEB780912001909121018130910539
:1002F00069F08130910518F0029779F020C081E013
:1003000090E0909321018093200119C082E090E059
:10031000909321018093200112C0809119018430B3
:1003200039F481E090E0909321018093200106C090
:1003300082E090E090932101809320010000809161
:100340002001909121018130910519F0029729F047
:100350000AC081E08093190106C080911901880FBD
:100360008093190100000000DF91CF910895CF9391
:10037000DF93CDB7DEB780912601909127018130C0
:10038000910569F08130910518F0029779F015C058
:1003900081E090E090932701809326010EC082E0D7
:1003A00090E0909327018093260107C081E090E0C0
:1003B000909327018093260100008091260190915F
:1003C00027018130910519F0029721F007C01092A2
:1003D0001A0104C088E080931A0100000000DF9138
:1003E000CF910895CF93DF931F92CDB7DEB780E210
:1003F00090E0FC01808180958470898380911E014A
:1004000090911F018130910569F08130910518F0BC
:100410000297C9F031C081E090E090931F01809372
:100420001E012AC08981882339F082E090E09093F0
:100430001F0180931E0120C081E090E090931F0176
:1004400080931E0119C08981882379F082E090E0B1
:1004500090931F0180931E0190911D0181E09923CB
:1004600009F080E080931D0106C081E090E0909348
:100470001F0180931E01000080911E0190911F01B9
:100480008130910519F0029741F015C010921D01BD
:1004900080911D0180931B010EC080911D01882F4A
:1004A00090E082959295907F9827807F9827807121
:1004B00080931B01000000000F90DF91CF91089501
:1004C000CF93DF93CDB7DEB78091220190912301C6
:1004D000009719F0019751F012C081E090E09093DD
:1004E00023018093220110921C0109C081E090E059
:1004F000909323018093220110921C0100008091AF
:10050000220190912301019709F00EC090911C01E6
:1005100080911B01982B80911901982B80911A01D1
:10052000892B80931C01000085E290E020911C0142
:10053000FC0120830000DF91CF910895CF93DF93DA
:1005400000D0CDB7DEB780E290E0FC018081882F3B
:1005500090E08170992721E0892B09F020E0298320
:1005600080E290E0FC018081809582708A83809196
:100570002401909125018130910591F08130910500
:1005800040F08230910509F44CC0039709F481C012
:10059000B8C081E090E09093250180932401B1C020
:1005A0008981882399F08A81882381F482E090E010
:1005B000909325018093240180911201823080F173
:1005C000809112018150809312012AC08981882371
:1005D00099F48A81882381F083E090E0909325014B
:1005E00080932401809112018830D0F4809112010F
:1005F0008F5F8093120114C08981882351F48A810E
:10060000882339F481E090E09093250180932401C0
:1006100007C081E090E0909325018093240171C090
:1006200070C08981882351F08A81882339F482E05F
:1006300090E090932501809324012AC0898188232A
:1006400099F48A81882381F083E090E090932501DA
:1006500080932401809112018830D0F4809112019E
:100660008F5F8093120114C08981882351F48A819D
:10067000882339F481E090E0909325018093240150
:1006800007C081E090E0909325018093240139C058
:1006900038C08981882399F08A81882381F482E097
:1006A00090E0909325018093240180911201823083
:1006B00038F18091120181508093120121C089810B
:1006C000882351F48A81882339F083E090E0909365
:1006D00025018093240114C08981882351F48A81E3
:1006E000882339F481E090E09093250180932401E0
:1006F00007C081E090E0909325018093240100C021
:10070000000000000F900F90DF91CF910895CF93DC
:10071000DF93CDB7DEB72B970FB6F894DEBF0FBED1
:10072000CDBF81E290E0FC01108282E290E02FEFE9
:10073000FC01208384E290E02FEFFC01208385E21E
:1007400090E0FC01108261E070E080E090E00E94A7
:1007500040010E949B0081E08B878CE291E09A83AC
:10076000898388EE93E09C838B8382E390E09E8371
:100770008D8380911201882F90E098878F838091DC
:100780001201882F90E09A87898710922701109292
:100790002601109221011092200110922501109241
:1007A000240110921F0110921E0110922301109239
:1007B000220189819A818C32914020F00E946E0141
:1007C0001A8219828B819C81883E934020F00E947E
:1007D000B7011C821B828D819E81C29720F00E94EE
:1007E0009E021E821D8280911201282F30E08F818F
:1007F00098858217930720F00E94F20118861F82C5
:1008000080911201282F30E089859A8582179307FD
:1008100020F00E9460021A8619860000809114015F
:100820008823E1F3109214018B85882F90E02B81AF
:100830003C81820F931F9C838B838B85882F90E054
:1008400029813A81820F931F9A8389838B85882F10
:1008500090E02D813E81820F931F9E838D838B8537
:10086000882F90E02F813885820F931F98878F8380
:100870008B85882F90E029853A85820F931F9A8770
:08088000898797CFF894FFCFA0
:1008880000000002000000006700000000000100F6
:040898000000040058
:00000001FF
